{
    "contractName": "SimpleStorage",
    "abi": [
        {
            "inputs": [
                {
                    "internalType": "string",
                    "name": "_name",
                    "type": "string"
                },
                {
                    "internalType": "uint256",
                    "name": "_favoriteNumber",
                    "type": "uint256"
                }
            ],
            "name": "addPerson",
            "outputs": [],
            "stateMutability": "nonpayable",
            "type": "function"
        },
        {
            "inputs": [],
            "name": "favoriteNumber",
            "outputs": [
                {
                    "internalType": "uint256",
                    "name": "",
                    "type": "uint256"
                }
            ],
            "stateMutability": "view",
            "type": "function"
        },
        {
            "inputs": [
                {
                    "internalType": "uint256",
                    "name": "",
                    "type": "uint256"
                }
            ],
            "name": "people",
            "outputs": [
                {
                    "internalType": "uint256",
                    "name": "favoriteNumber",
                    "type": "uint256"
                },
                {
                    "internalType": "string",
                    "name": "name",
                    "type": "string"
                }
            ],
            "stateMutability": "view",
            "type": "function"
        },
        {
            "inputs": [],
            "name": "retrieve",
            "outputs": [
                {
                    "internalType": "uint256",
                    "name": "",
                    "type": "uint256"
                }
            ],
            "stateMutability": "view",
            "type": "function"
        },
        {
            "inputs": [
                {
                    "internalType": "uint256",
                    "name": "_favoriteNumber",
                    "type": "uint256"
                }
            ],
            "name": "store",
            "outputs": [],
            "stateMutability": "nonpayable",
            "type": "function"
        }
    ],
    "bytecode": "608060405234801561001057600080fd5b506104be806100206000396000f3fe608060405234801561001057600080fd5b50600436106100575760003560e01c80632e64cec11461005c578063471f7cdf146100735780636057361d1461007c5780636f760f41146100915780639e7a13ad146100a4575b600080fd5b6000545b6040519081526020015b60405180910390f35b61006060005481565b61008f61008a366004610205565b600055565b005b61008f61009f366004610234565b6100c5565b6100b76100b2366004610205565b61014d565b60405161006a9291906102e9565b6040805180820190915281815260208101838152600180548082018255600091909152825160029091027fb10e2d527612073b26eecdfd717e6a320cf44b4afac2b0732d9fcbe2b7fa0cf68101918255915190917fb10e2d527612073b26eecdfd717e6a320cf44b4afac2b0732d9fcbe2b7fa0cf7019061014690826103c8565b5050505050565b6001818154811061015d57600080fd5b600091825260209091206002909102018054600182018054919350906101829061033f565b80601f01602080910402602001604051908101604052809291908181526020018280546101ae9061033f565b80156101fb5780601f106101d0576101008083540402835291602001916101fb565b820191906000526020600020905b8154815290600101906020018083116101de57829003601f168201915b5050505050905082565b60006020828403121561021757600080fd5b5035919050565b634e487b7160e01b600052604160045260246000fd5b6000806040838503121561024757600080fd5b823567ffffffffffffffff8082111561025f57600080fd5b818501915085601f83011261027357600080fd5b8135818111156102855761028561021e565b604051601f8201601f19908116603f011681019083821181831017156102ad576102ad61021e565b816040528281528860208487010111156102c657600080fd5b826020860160208301376000602093820184015298969091013596505050505050565b82815260006020604081840152835180604085015260005b8181101561031d57858101830151858201606001528201610301565b506000606082860101526060601f19601f830116850101925050509392505050565b600181811c9082168061035357607f821691505b60208210810361037357634e487b7160e01b600052602260045260246000fd5b50919050565b601f8211156103c357600081815260208120601f850160051c810160208610156103a05750805b601f850160051c820191505b818110156103bf578281556001016103ac565b5050505b505050565b815167ffffffffffffffff8111156103e2576103e261021e565b6103f6816103f0845461033f565b84610379565b602080601f83116001811461042b57600084156104135750858301515b600019600386901b1c1916600185901b1785556103bf565b600085815260208120601f198616915b8281101561045a5788860151825594840194600190910190840161043b565b50858210156104785787850151600019600388901b60f8161c191681555b5050505050600190811b0190555056fea264697066735822122064f11cfd4a5af97d48a56b81a0f2d88640b9c19de6006ef78f0affaf0a46d09f64736f6c63430008110033",
    "sourcePath": "f:/blockchain/simple-storage-remix/contracts/SimpleStorage.sol",
    "compiler": {
        "name": "solc",
        "version": "0.8.17+commit.8df45f5f"
    },
    "functionHashes": {
        "addPerson(string,uint256)": "6f760f41",
        "favoriteNumber()": "471f7cdf",
        "people(uint256)": "9e7a13ad",
        "retrieve()": "2e64cec1",
        "store(uint256)": "6057361d"
    },
    "gasEstimates": {
        "creation": {
            "codeDepositCost": "242800",
            "executionCost": "281",
            "totalCost": "243081"
        },
        "external": {
            "addPerson(string,uint256)": "infinite",
            "favoriteNumber()": "2284",
            "people(uint256)": "infinite",
            "retrieve()": "2248",
            "store(uint256)": "22334"
        }
    }
}